{
  "contractName": "SupplyChain",
  "abi": [
    {
      "inputs": [],
      "stateMutability": "nonpayable",
      "type": "constructor"
    },
    {
      "anonymous": false,
      "inputs": [
        {
          "indexed": true,
          "internalType": "address",
          "name": "account",
          "type": "address"
        }
      ],
      "name": "ConsumerAdded",
      "type": "event"
    },
    {
      "anonymous": false,
      "inputs": [
        {
          "indexed": true,
          "internalType": "address",
          "name": "account",
          "type": "address"
        }
      ],
      "name": "ConsumerRemoved",
      "type": "event"
    },
    {
      "anonymous": false,
      "inputs": [
        {
          "indexed": true,
          "internalType": "address",
          "name": "account",
          "type": "address"
        }
      ],
      "name": "DistributorAdded",
      "type": "event"
    },
    {
      "anonymous": false,
      "inputs": [
        {
          "indexed": true,
          "internalType": "address",
          "name": "account",
          "type": "address"
        }
      ],
      "name": "DistributorRemoved",
      "type": "event"
    },
    {
      "anonymous": false,
      "inputs": [
        {
          "indexed": true,
          "internalType": "address",
          "name": "account",
          "type": "address"
        }
      ],
      "name": "FarmerAdded",
      "type": "event"
    },
    {
      "anonymous": false,
      "inputs": [
        {
          "indexed": true,
          "internalType": "address",
          "name": "account",
          "type": "address"
        }
      ],
      "name": "FarmerRemoved",
      "type": "event"
    },
    {
      "anonymous": false,
      "inputs": [
        {
          "indexed": false,
          "internalType": "uint256",
          "name": "upc",
          "type": "uint256"
        }
      ],
      "name": "ForSale",
      "type": "event"
    },
    {
      "anonymous": false,
      "inputs": [
        {
          "indexed": false,
          "internalType": "uint256",
          "name": "upc",
          "type": "uint256"
        }
      ],
      "name": "Harvested",
      "type": "event"
    },
    {
      "anonymous": false,
      "inputs": [
        {
          "indexed": false,
          "internalType": "uint256",
          "name": "upc",
          "type": "uint256"
        }
      ],
      "name": "Packed",
      "type": "event"
    },
    {
      "anonymous": false,
      "inputs": [
        {
          "indexed": false,
          "internalType": "uint256",
          "name": "upc",
          "type": "uint256"
        }
      ],
      "name": "Processed",
      "type": "event"
    },
    {
      "anonymous": false,
      "inputs": [
        {
          "indexed": false,
          "internalType": "uint256",
          "name": "upc",
          "type": "uint256"
        }
      ],
      "name": "Purchased",
      "type": "event"
    },
    {
      "anonymous": false,
      "inputs": [
        {
          "indexed": false,
          "internalType": "uint256",
          "name": "upc",
          "type": "uint256"
        }
      ],
      "name": "Received",
      "type": "event"
    },
    {
      "anonymous": false,
      "inputs": [
        {
          "indexed": true,
          "internalType": "address",
          "name": "account",
          "type": "address"
        }
      ],
      "name": "RetailerAdded",
      "type": "event"
    },
    {
      "anonymous": false,
      "inputs": [
        {
          "indexed": true,
          "internalType": "address",
          "name": "account",
          "type": "address"
        }
      ],
      "name": "RetailerRemoved",
      "type": "event"
    },
    {
      "anonymous": false,
      "inputs": [
        {
          "indexed": false,
          "internalType": "uint256",
          "name": "upc",
          "type": "uint256"
        }
      ],
      "name": "Shipped",
      "type": "event"
    },
    {
      "anonymous": false,
      "inputs": [
        {
          "indexed": false,
          "internalType": "uint256",
          "name": "upc",
          "type": "uint256"
        }
      ],
      "name": "Sold",
      "type": "event"
    },
    {
      "anonymous": false,
      "inputs": [
        {
          "indexed": true,
          "internalType": "address",
          "name": "oldOwner",
          "type": "address"
        },
        {
          "indexed": true,
          "internalType": "address",
          "name": "newOwner",
          "type": "address"
        }
      ],
      "name": "TransferOwnership",
      "type": "event"
    },
    {
      "inputs": [
        {
          "internalType": "address",
          "name": "account",
          "type": "address"
        }
      ],
      "name": "addConsumer",
      "outputs": [],
      "stateMutability": "nonpayable",
      "type": "function"
    },
    {
      "inputs": [
        {
          "internalType": "address",
          "name": "account",
          "type": "address"
        }
      ],
      "name": "addDistributor",
      "outputs": [],
      "stateMutability": "nonpayable",
      "type": "function"
    },
    {
      "inputs": [
        {
          "internalType": "address",
          "name": "account",
          "type": "address"
        }
      ],
      "name": "addFarmer",
      "outputs": [],
      "stateMutability": "nonpayable",
      "type": "function"
    },
    {
      "inputs": [
        {
          "internalType": "address",
          "name": "account",
          "type": "address"
        }
      ],
      "name": "addRetailer",
      "outputs": [],
      "stateMutability": "nonpayable",
      "type": "function"
    },
    {
      "inputs": [
        {
          "internalType": "address",
          "name": "account",
          "type": "address"
        }
      ],
      "name": "isConsumer",
      "outputs": [
        {
          "internalType": "bool",
          "name": "",
          "type": "bool"
        }
      ],
      "stateMutability": "view",
      "type": "function",
      "constant": true
    },
    {
      "inputs": [
        {
          "internalType": "address",
          "name": "account",
          "type": "address"
        }
      ],
      "name": "isDistributor",
      "outputs": [
        {
          "internalType": "bool",
          "name": "",
          "type": "bool"
        }
      ],
      "stateMutability": "view",
      "type": "function",
      "constant": true
    },
    {
      "inputs": [
        {
          "internalType": "address",
          "name": "account",
          "type": "address"
        }
      ],
      "name": "isFarmer",
      "outputs": [
        {
          "internalType": "bool",
          "name": "",
          "type": "bool"
        }
      ],
      "stateMutability": "view",
      "type": "function",
      "constant": true
    },
    {
      "inputs": [],
      "name": "isOwner",
      "outputs": [
        {
          "internalType": "bool",
          "name": "",
          "type": "bool"
        }
      ],
      "stateMutability": "view",
      "type": "function",
      "constant": true
    },
    {
      "inputs": [
        {
          "internalType": "address",
          "name": "account",
          "type": "address"
        }
      ],
      "name": "isRetailer",
      "outputs": [
        {
          "internalType": "bool",
          "name": "",
          "type": "bool"
        }
      ],
      "stateMutability": "view",
      "type": "function",
      "constant": true
    },
    {
      "inputs": [],
      "name": "owner",
      "outputs": [
        {
          "internalType": "address",
          "name": "",
          "type": "address"
        }
      ],
      "stateMutability": "view",
      "type": "function",
      "constant": true
    },
    {
      "inputs": [],
      "name": "renounceConsumer",
      "outputs": [],
      "stateMutability": "nonpayable",
      "type": "function"
    },
    {
      "inputs": [],
      "name": "renounceDistributor",
      "outputs": [],
      "stateMutability": "nonpayable",
      "type": "function"
    },
    {
      "inputs": [],
      "name": "renounceFarmer",
      "outputs": [],
      "stateMutability": "nonpayable",
      "type": "function"
    },
    {
      "inputs": [],
      "name": "renounceOwnership",
      "outputs": [],
      "stateMutability": "nonpayable",
      "type": "function"
    },
    {
      "inputs": [],
      "name": "renounceRetailer",
      "outputs": [],
      "stateMutability": "nonpayable",
      "type": "function"
    },
    {
      "inputs": [
        {
          "internalType": "address",
          "name": "newOwner",
          "type": "address"
        }
      ],
      "name": "transferOwnership",
      "outputs": [],
      "stateMutability": "nonpayable",
      "type": "function"
    },
    {
      "inputs": [
        {
          "internalType": "uint256",
          "name": "_upc",
          "type": "uint256"
        },
        {
          "internalType": "address",
          "name": "_originFarmerID",
          "type": "address"
        },
        {
          "internalType": "string",
          "name": "_originFarmName",
          "type": "string"
        },
        {
          "internalType": "string",
          "name": "_originFarmInformation",
          "type": "string"
        },
        {
          "internalType": "string",
          "name": "_originFarmLatitude",
          "type": "string"
        },
        {
          "internalType": "string",
          "name": "_originFarmLongitude",
          "type": "string"
        },
        {
          "internalType": "string",
          "name": "_productNotes",
          "type": "string"
        }
      ],
      "name": "harvestItem",
      "outputs": [],
      "stateMutability": "nonpayable",
      "type": "function"
    },
    {
      "inputs": [
        {
          "internalType": "uint256",
          "name": "_upc",
          "type": "uint256"
        }
      ],
      "name": "processItem",
      "outputs": [],
      "stateMutability": "nonpayable",
      "type": "function"
    },
    {
      "inputs": [
        {
          "internalType": "uint256",
          "name": "_upc",
          "type": "uint256"
        }
      ],
      "name": "packItem",
      "outputs": [],
      "stateMutability": "nonpayable",
      "type": "function"
    },
    {
      "inputs": [
        {
          "internalType": "uint256",
          "name": "_upc",
          "type": "uint256"
        },
        {
          "internalType": "uint256",
          "name": "_price",
          "type": "uint256"
        }
      ],
      "name": "sellItem",
      "outputs": [],
      "stateMutability": "nonpayable",
      "type": "function"
    },
    {
      "inputs": [
        {
          "internalType": "uint256",
          "name": "_upc",
          "type": "uint256"
        }
      ],
      "name": "buyItem",
      "outputs": [],
      "stateMutability": "payable",
      "type": "function",
      "payable": true
    },
    {
      "inputs": [
        {
          "internalType": "uint256",
          "name": "_upc",
          "type": "uint256"
        }
      ],
      "name": "shipItem",
      "outputs": [],
      "stateMutability": "nonpayable",
      "type": "function"
    },
    {
      "inputs": [
        {
          "internalType": "uint256",
          "name": "_upc",
          "type": "uint256"
        }
      ],
      "name": "receiveItem",
      "outputs": [],
      "stateMutability": "nonpayable",
      "type": "function"
    },
    {
      "inputs": [
        {
          "internalType": "uint256",
          "name": "_upc",
          "type": "uint256"
        }
      ],
      "name": "purchaseItem",
      "outputs": [],
      "stateMutability": "nonpayable",
      "type": "function"
    },
    {
      "inputs": [
        {
          "internalType": "uint256",
          "name": "_upc",
          "type": "uint256"
        }
      ],
      "name": "fetchItemBufferOne",
      "outputs": [
        {
          "internalType": "uint256",
          "name": "itemSKU",
          "type": "uint256"
        },
        {
          "internalType": "uint256",
          "name": "itemUPC",
          "type": "uint256"
        },
        {
          "internalType": "address",
          "name": "ownerID",
          "type": "address"
        },
        {
          "internalType": "address",
          "name": "originFarmerID",
          "type": "address"
        },
        {
          "internalType": "string",
          "name": "originFarmName",
          "type": "string"
        },
        {
          "internalType": "string",
          "name": "originFarmInformation",
          "type": "string"
        },
        {
          "internalType": "string",
          "name": "originFarmLatitude",
          "type": "string"
        },
        {
          "internalType": "string",
          "name": "originFarmLongitude",
          "type": "string"
        }
      ],
      "stateMutability": "view",
      "type": "function",
      "constant": true
    },
    {
      "inputs": [
        {
          "internalType": "uint256",
          "name": "_upc",
          "type": "uint256"
        }
      ],
      "name": "fetchItemBufferTwo",
      "outputs": [
        {
          "internalType": "uint256",
          "name": "itemSKU",
          "type": "uint256"
        },
        {
          "internalType": "uint256",
          "name": "itemUPC",
          "type": "uint256"
        },
        {
          "internalType": "uint256",
          "name": "productID",
          "type": "uint256"
        },
        {
          "internalType": "string",
          "name": "productNotes",
          "type": "string"
        },
        {
          "internalType": "uint256",
          "name": "productPrice",
          "type": "uint256"
        },
        {
          "internalType": "uint256",
          "name": "itemState",
          "type": "uint256"
        },
        {
          "internalType": "address",
          "name": "distributorID",
          "type": "address"
        },
        {
          "internalType": "address",
          "name": "retailerID",
          "type": "address"
        },
        {
          "internalType": "address",
          "name": "consumerID",
          "type": "address"
        }
      ],
      "stateMutability": "view",
      "type": "function",
      "constant": true
    }
  ],
  "bytecode": "0x60806040523480156200001157600080fd5b50336000806101000a81548173ffffffffffffffffffffffffffffffffffffffff021916908373ffffffffffffffffffffffffffffffffffffffff16021790555060008054906101000a900473ffffffffffffffffffffffffffffffffffffffff1673ffffffffffffffffffffffffffffffffffffffff16600073ffffffffffffffffffffffffffffffffffffffff167f5c486528ec3e3f0ea91181cff8116f02bfa350e03b8b6f12e00765adbb5af85c60405160405180910390a3620000de336200012760201b60201c565b620000ef336200018860201b60201c565b6200010033620001e960201b60201c565b62000111336200024a60201b60201c565b60016006819055506001600581905550620003f4565b62000142816001620002ab60201b62002b661790919060201c565b8073ffffffffffffffffffffffffffffffffffffffff167f2e0ded4123377a3c2bc9a26f1717655a129e2f20752924d42e730ec89c83dbd060405160405180910390a250565b620001a3816002620002ab60201b62002b661790919060201c565b8073ffffffffffffffffffffffffffffffffffffffff167fddbf200aa634dc3fb81cfd68583dd1040d1c751d335e1d86b631bde3e977fea860405160405180910390a250565b62000204816003620002ab60201b62002b661790919060201c565b8073ffffffffffffffffffffffffffffffffffffffff167f71ae26cad02663e3d92efd6ec56031a80d74a20c0ab4183faa8bf262261c9baa60405160405180910390a250565b62000265816004620002ab60201b62002b661790919060201c565b8073ffffffffffffffffffffffffffffffffffffffff167f28b26e7a3d20aedbc5f8f2ebf7da671c0491723a2b78f47a097b0e46dee0714260405160405180910390a250565b600073ffffffffffffffffffffffffffffffffffffffff168173ffffffffffffffffffffffffffffffffffffffff161415620002e657600080fd5b620002f882826200036160201b60201c565b156200030357600080fd5b60018260000160008373ffffffffffffffffffffffffffffffffffffffff1673ffffffffffffffffffffffffffffffffffffffff16815260200190815260200160002060006101000a81548160ff0219169083151502179055505050565b60008073ffffffffffffffffffffffffffffffffffffffff168273ffffffffffffffffffffffffffffffffffffffff1614156200039d57600080fd5b8260000160008373ffffffffffffffffffffffffffffffffffffffff1673ffffffffffffffffffffffffffffffffffffffff16815260200190815260200160002060009054906101000a900460ff16905092915050565b613deb80620004046000396000f3fe6080604052600436106101815760003560e01c80638da5cb5b116100d1578063bdd8a6a81161008a578063e7fb74c711610064578063e7fb74c71461053d578063f2fde38b14610559578063f30fc48014610582578063f61c899a146105ab57610181565b8063bdd8a6a8146104d4578063d38ea5bf146104fd578063db0e6a2f1461052657610181565b80638da5cb5b146103b25780638ec4f505146103dd5780638f0c86fa146104065780638f32d59b14610443578063a26be9991461046e578063b94290691461049757610181565b806366225ff91161013e57806377c459131161011857806377c45913146102f157806380c3f96d1461033557806380fc0ce41461035e578063834ff7391461037557610181565b806366225ff91461026c578063715018a6146102b15780637250e224146102c857610181565b8063112940f9146101865780632d923561146101af57806349dae766146101d85780635da09b881461020157806361e6982d1461023e578063644241db14610255575b600080fd5b34801561019257600080fd5b506101ad60048036038101906101a8919061324b565b6105d4565b005b3480156101bb57600080fd5b506101d660048036038101906101d191906133b3565b610628565b005b3480156101e457600080fd5b506101ff60048036038101906101fa9190613274565b6108a9565b005b34801561020d57600080fd5b506102286004803603810190610223919061324b565b610b0e565b6040516102359190613822565b60405180910390f35b34801561024a57600080fd5b50610253610b2b565b005b34801561026157600080fd5b5061026a610b36565b005b34801561027857600080fd5b50610293600480360381019061028e9190613274565b610b41565b6040516102a899989796959493929190613a92565b60405180910390f35b3480156102bd57600080fd5b506102c6611131565b005b3480156102d457600080fd5b506102ef60048036038101906102ea919061324b565b611200565b005b3480156102fd57600080fd5b5061031860048036038101906103139190613274565b611254565b60405161032c9897969594939291906139f8565b60405180910390f35b34801561034157600080fd5b5061035c6004803603810190610357919061324b565b6117fa565b005b34801561036a57600080fd5b5061037361184e565b005b34801561038157600080fd5b5061039c6004803603810190610397919061324b565b611859565b6040516103a99190613822565b60405180910390f35b3480156103be57600080fd5b506103c7611876565b6040516103d49190613807565b60405180910390f35b3480156103e957600080fd5b5061040460048036038101906103ff919061324b565b61189f565b005b34801561041257600080fd5b5061042d6004803603810190610428919061324b565b6118f3565b60405161043a9190613822565b60405180910390f35b34801561044f57600080fd5b50610458611910565b6040516104659190613822565b60405180910390f35b34801561047a57600080fd5b5061049560048036038101906104909190613274565b611967565b005b3480156104a357600080fd5b506104be60048036038101906104b9919061324b565b611bd0565b6040516104cb9190613822565b60405180910390f35b3480156104e057600080fd5b506104fb60048036038101906104f6919061329d565b611bed565b005b34801561050957600080fd5b50610524600480360381019061051f9190613274565b61203f565b005b34801561053257600080fd5b5061053b6122a7565b005b61055760048036038101906105529190613274565b6122b2565b005b34801561056557600080fd5b50610580600480360381019061057b919061324b565b61267f565b005b34801561058e57600080fd5b506105a960048036038101906105a49190613274565b61269c565b005b3480156105b757600080fd5b506105d260048036038101906105cd9190613274565b612901565b005b6105dd33611859565b61061c576040517f08c379a00000000000000000000000000000000000000000000000000000000081526004016106139061391d565b60405180910390fd5b61062581612c12565b50565b8160026007811115610663577f4e487b7100000000000000000000000000000000000000000000000000000000600052602160045260246000fd5b60076000838152602001908152602001600020600b0160009054906101000a900460ff1660078111156106bf577f4e487b7100000000000000000000000000000000000000000000000000000000600052602160045260246000fd5b146106ff576040517f08c379a00000000000000000000000000000000000000000000000000000000081526004016106f69061383d565b60405180910390fd5b6007600084815260200190815260200160002060020160009054906101000a900473ffffffffffffffffffffffffffffffffffffffff168073ffffffffffffffffffffffffffffffffffffffff163373ffffffffffffffffffffffffffffffffffffffff16146107a4576040517f08c379a000000000000000000000000000000000000000000000000000000000815260040161079b906138bd565b60405180910390fd5b6107ad33611bd0565b6107ec576040517f08c379a00000000000000000000000000000000000000000000000000000000081526004016107e39061399d565b60405180910390fd5b8260076000868152602001908152602001600020600a0181905550600360076000868152602001908152602001600020600b0160006101000a81548160ff02191690836007811115610867577f4e487b7100000000000000000000000000000000000000000000000000000000600052602160045260246000fd5b02179055507fa96ae0fc3224ebd79eebfe54bd130cc9cb94416cddd1f2386115e00b725324688460405161089b91906139dd565b60405180910390a150505050565b80600060078111156108e4577f4e487b7100000000000000000000000000000000000000000000000000000000600052602160045260246000fd5b60076000838152602001908152602001600020600b0160009054906101000a900460ff166007811115610940577f4e487b7100000000000000000000000000000000000000000000000000000000600052602160045260246000fd5b14610980576040517f08c379a00000000000000000000000000000000000000000000000000000000081526004016109779061395d565b60405180910390fd5b6007600083815260200190815260200160002060020160009054906101000a900473ffffffffffffffffffffffffffffffffffffffff168073ffffffffffffffffffffffffffffffffffffffff163373ffffffffffffffffffffffffffffffffffffffff1614610a25576040517f08c379a0000000000000000000000000000000000000000000000000000000008152600401610a1c906138bd565b60405180910390fd5b610a2e33611bd0565b610a6d576040517f08c379a0000000000000000000000000000000000000000000000000000000008152600401610a649061399d565b60405180910390fd5b600160076000858152602001908152602001600020600b0160006101000a81548160ff02191690836007811115610acd577f4e487b7100000000000000000000000000000000000000000000000000000000600052602160045260246000fd5b02179055507f5afe3b1bf87069693c075da5c22a98d63d1aef98a30dbbe538d0781a98b77ee583604051610b0191906139dd565b60405180910390a1505050565b6000610b24826003612c6c90919063ffffffff16565b9050919050565b610b3433612cfe565b565b610b3f33612d58565b565b60008060006060600080600080600080600760008c8152602001908152602001600020604051806101e001604052908160008201548152602001600182015481526020016002820160009054906101000a900473ffffffffffffffffffffffffffffffffffffffff1673ffffffffffffffffffffffffffffffffffffffff1673ffffffffffffffffffffffffffffffffffffffff1681526020016003820160009054906101000a900473ffffffffffffffffffffffffffffffffffffffff1673ffffffffffffffffffffffffffffffffffffffff1673ffffffffffffffffffffffffffffffffffffffff168152602001600482018054610c4090613cb7565b80601f0160208091040260200160405190810160405280929190818152602001828054610c6c90613cb7565b8015610cb95780601f10610c8e57610100808354040283529160200191610cb9565b820191906000526020600020905b815481529060010190602001808311610c9c57829003601f168201915b50505050508152602001600582018054610cd290613cb7565b80601f0160208091040260200160405190810160405280929190818152602001828054610cfe90613cb7565b8015610d4b5780601f10610d2057610100808354040283529160200191610d4b565b820191906000526020600020905b815481529060010190602001808311610d2e57829003601f168201915b50505050508152602001600682018054610d6490613cb7565b80601f0160208091040260200160405190810160405280929190818152602001828054610d9090613cb7565b8015610ddd5780601f10610db257610100808354040283529160200191610ddd565b820191906000526020600020905b815481529060010190602001808311610dc057829003601f168201915b50505050508152602001600782018054610df690613cb7565b80601f0160208091040260200160405190810160405280929190818152602001828054610e2290613cb7565b8015610e6f5780601f10610e4457610100808354040283529160200191610e6f565b820191906000526020600020905b815481529060010190602001808311610e5257829003601f168201915b5050505050815260200160088201548152602001600982018054610e9290613cb7565b80601f0160208091040260200160405190810160405280929190818152602001828054610ebe90613cb7565b8015610f0b5780601f10610ee057610100808354040283529160200191610f0b565b820191906000526020600020905b815481529060010190602001808311610eee57829003601f168201915b50505050508152602001600a8201548152602001600b820160009054906101000a900460ff166007811115610f69577f4e487b7100000000000000000000000000000000000000000000000000000000600052602160045260246000fd5b6007811115610fa1577f4e487b7100000000000000000000000000000000000000000000000000000000600052602160045260246000fd5b8152602001600b820160019054906101000a900473ffffffffffffffffffffffffffffffffffffffff1673ffffffffffffffffffffffffffffffffffffffff1673ffffffffffffffffffffffffffffffffffffffff168152602001600c820160009054906101000a900473ffffffffffffffffffffffffffffffffffffffff1673ffffffffffffffffffffffffffffffffffffffff1673ffffffffffffffffffffffffffffffffffffffff168152602001600d820160009054906101000a900473ffffffffffffffffffffffffffffffffffffffff1673ffffffffffffffffffffffffffffffffffffffff1673ffffffffffffffffffffffffffffffffffffffff16815250509050806000015199508a98508061010001519750806101200151965080610140015195508061016001516007811115611109577f4e487b7100000000000000000000000000000000000000000000000000000000600052602160045260246000fd5b94508061018001519350806101a001519250806101c001519150509193959799909294969850565b611139611910565b61114257600080fd5b600073ffffffffffffffffffffffffffffffffffffffff1660008054906101000a900473ffffffffffffffffffffffffffffffffffffffff1673ffffffffffffffffffffffffffffffffffffffff167f5c486528ec3e3f0ea91181cff8116f02bfa350e03b8b6f12e00765adbb5af85c60405160405180910390a360008060006101000a81548173ffffffffffffffffffffffffffffffffffffffff021916908373ffffffffffffffffffffffffffffffffffffffff160217905550565b611209336118f3565b611248576040517f08c379a000000000000000000000000000000000000000000000000000000000815260040161123f906138dd565b60405180910390fd5b61125181612db2565b50565b6000806000806060806060806000600760008b8152602001908152602001600020604051806101e001604052908160008201548152602001600182015481526020016002820160009054906101000a900473ffffffffffffffffffffffffffffffffffffffff1673ffffffffffffffffffffffffffffffffffffffff1673ffffffffffffffffffffffffffffffffffffffff1681526020016003820160009054906101000a900473ffffffffffffffffffffffffffffffffffffffff1673ffffffffffffffffffffffffffffffffffffffff1673ffffffffffffffffffffffffffffffffffffffff16815260200160048201805461135190613cb7565b80601f016020809104026020016040519081016040528092919081815260200182805461137d90613cb7565b80156113ca5780601f1061139f576101008083540402835291602001916113ca565b820191906000526020600020905b8154815290600101906020018083116113ad57829003601f168201915b505050505081526020016005820180546113e390613cb7565b80601f016020809104026020016040519081016040528092919081815260200182805461140f90613cb7565b801561145c5780601f106114315761010080835404028352916020019161145c565b820191906000526020600020905b81548152906001019060200180831161143f57829003601f168201915b5050505050815260200160068201805461147590613cb7565b80601f01602080910402602001604051908101604052809291908181526020018280546114a190613cb7565b80156114ee5780601f106114c3576101008083540402835291602001916114ee565b820191906000526020600020905b8154815290600101906020018083116114d157829003601f168201915b5050505050815260200160078201805461150790613cb7565b80601f016020809104026020016040519081016040528092919081815260200182805461153390613cb7565b80156115805780601f1061155557610100808354040283529160200191611580565b820191906000526020600020905b81548152906001019060200180831161156357829003601f168201915b50505050508152602001600882015481526020016009820180546115a390613cb7565b80601f01602080910402602001604051908101604052809291908181526020018280546115cf90613cb7565b801561161c5780601f106115f15761010080835404028352916020019161161c565b820191906000526020600020905b8154815290600101906020018083116115ff57829003601f168201915b50505050508152602001600a8201548152602001600b820160009054906101000a900460ff16600781111561167a577f4e487b7100000000000000000000000000000000000000000000000000000000600052602160045260246000fd5b60078111156116b2577f4e487b7100000000000000000000000000000000000000000000000000000000600052602160045260246000fd5b8152602001600b820160019054906101000a900473ffffffffffffffffffffffffffffffffffffffff1673ffffffffffffffffffffffffffffffffffffffff1673ffffffffffffffffffffffffffffffffffffffff168152602001600c820160009054906101000a900473ffffffffffffffffffffffffffffffffffffffff1673ffffffffffffffffffffffffffffffffffffffff1673ffffffffffffffffffffffffffffffffffffffff168152602001600d820160009054906101000a900473ffffffffffffffffffffffffffffffffffffffff1673ffffffffffffffffffffffffffffffffffffffff1673ffffffffffffffffffffffffffffffffffffffff16815250509050806000015198508997508060400151965080606001519550806080015194508060a0015193508060c0015192508060e00151915050919395975091939597565b61180333611bd0565b611842576040517f08c379a00000000000000000000000000000000000000000000000000000000081526004016118399061399d565b60405180910390fd5b61184b81612e0c565b50565b61185733612e66565b565b600061186f826004612c6c90919063ffffffff16565b9050919050565b60008060009054906101000a900473ffffffffffffffffffffffffffffffffffffffff16905090565b6118a833610b0e565b6118e7576040517f08c379a00000000000000000000000000000000000000000000000000000000081526004016118de906138fd565b60405180910390fd5b6118f081612ec0565b50565b6000611909826002612c6c90919063ffffffff16565b9050919050565b60008060009054906101000a900473ffffffffffffffffffffffffffffffffffffffff1673ffffffffffffffffffffffffffffffffffffffff163373ffffffffffffffffffffffffffffffffffffffff1614905090565b80600560078111156119a2577f4e487b7100000000000000000000000000000000000000000000000000000000600052602160045260246000fd5b60076000838152602001908152602001600020600b0160009054906101000a900460ff1660078111156119fe577f4e487b7100000000000000000000000000000000000000000000000000000000600052602160045260246000fd5b14611a3e576040517f08c379a0000000000000000000000000000000000000000000000000000000008152600401611a359061385d565b60405180910390fd5b611a4733610b0e565b611a86576040517f08c379a0000000000000000000000000000000000000000000000000000000008152600401611a7d906138fd565b60405180910390fd5b336007600084815260200190815260200160002060020160006101000a81548173ffffffffffffffffffffffffffffffffffffffff021916908373ffffffffffffffffffffffffffffffffffffffff1602179055503360076000848152602001908152602001600020600c0160006101000a81548173ffffffffffffffffffffffffffffffffffffffff021916908373ffffffffffffffffffffffffffffffffffffffff160217905550600660076000848152602001908152602001600020600b0160006101000a81548160ff02191690836007811115611b90577f4e487b7100000000000000000000000000000000000000000000000000000000600052602160045260246000fd5b02179055507fa8142743f8f70a4c26f3691cf4ed59718381fb2f18070ec52be1f1022d85555782604051611bc491906139dd565b60405180910390a15050565b6000611be6826001612c6c90919063ffffffff16565b9050919050565b611bf633611bd0565b611c35576040517f08c379a0000000000000000000000000000000000000000000000000000000008152600401611c2c9061399d565b60405180910390fd5b6000604051806101e0016040528060065481526020018981526020013373ffffffffffffffffffffffffffffffffffffffff1681526020018873ffffffffffffffffffffffffffffffffffffffff1681526020018781526020018681526020018581526020018481526020016006548a611caf9190613ba3565b81526020018381526020016000815260200160006007811115611cfb577f4e487b7100000000000000000000000000000000000000000000000000000000600052602160045260246000fd5b8152602001600073ffffffffffffffffffffffffffffffffffffffff168152602001600073ffffffffffffffffffffffffffffffffffffffff168152602001600073ffffffffffffffffffffffffffffffffffffffff16815250905080600760008a8152602001908152602001600020600082015181600001556020820151816001015560408201518160020160006101000a81548173ffffffffffffffffffffffffffffffffffffffff021916908373ffffffffffffffffffffffffffffffffffffffff16021790555060608201518160030160006101000a81548173ffffffffffffffffffffffffffffffffffffffff021916908373ffffffffffffffffffffffffffffffffffffffff1602179055506080820151816004019080519060200190611e29929190613116565b5060a0820151816005019080519060200190611e46929190613116565b5060c0820151816006019080519060200190611e63929190613116565b5060e0820151816007019080519060200190611e80929190613116565b506101008201518160080155610120820151816009019080519060200190611ea9929190613116565b5061014082015181600a015561016082015181600b0160006101000a81548160ff02191690836007811115611f07577f4e487b7100000000000000000000000000000000000000000000000000000000600052602160045260246000fd5b021790555061018082015181600b0160016101000a81548173ffffffffffffffffffffffffffffffffffffffff021916908373ffffffffffffffffffffffffffffffffffffffff1602179055506101a082015181600c0160006101000a81548173ffffffffffffffffffffffffffffffffffffffff021916908373ffffffffffffffffffffffffffffffffffffffff1602179055506101c082015181600d0160006101000a81548173ffffffffffffffffffffffffffffffffffffffff021916908373ffffffffffffffffffffffffffffffffffffffff1602179055509050506001600654611ff69190613ba3565b6006819055507f8e55ccfc9778ff8eba1646d765cf1982537ce0f9257054a17b48aad74525018360055460405161202d91906139dd565b60405180910390a15050505050505050565b806006600781111561207a577f4e487b7100000000000000000000000000000000000000000000000000000000600052602160045260246000fd5b60076000838152602001908152602001600020600b0160009054906101000a900460ff1660078111156120d6577f4e487b7100000000000000000000000000000000000000000000000000000000600052602160045260246000fd5b14612116576040517f08c379a000000000000000000000000000000000000000000000000000000000815260040161210d9061387d565b60405180910390fd5b61211f33611859565b61215e576040517f08c379a00000000000000000000000000000000000000000000000000000000081526004016121559061391d565b60405180910390fd5b336007600084815260200190815260200160002060020160006101000a81548173ffffffffffffffffffffffffffffffffffffffff021916908373ffffffffffffffffffffffffffffffffffffffff1602179055503360076000848152602001908152602001600020600d0160006101000a81548173ffffffffffffffffffffffffffffffffffffffff021916908373ffffffffffffffffffffffffffffffffffffffff1602179055506007806000848152602001908152602001600020600b0160006101000a81548160ff02191690836007811115612267577f4e487b7100000000000000000000000000000000000000000000000000000000600052602160045260246000fd5b02179055507f653d56639fee6b566a5c804764e9689de38645f0b733df89a36a1b7b42173dd88260405161229b91906139dd565b60405180910390a15050565b6122b033612f1a565b565b80600360078111156122ed577f4e487b7100000000000000000000000000000000000000000000000000000000600052602160045260246000fd5b60076000838152602001908152602001600020600b0160009054906101000a900460ff166007811115612349577f4e487b7100000000000000000000000000000000000000000000000000000000600052602160045260246000fd5b14612389576040517f08c379a0000000000000000000000000000000000000000000000000000000008152600401612380906139bd565b60405180910390fd5b60076000838152602001908152602001600020600a0154803410156123e3576040517f08c379a00000000000000000000000000000000000000000000000000000000081526004016123da9061393d565b60405180910390fd5b826123ed336118f3565b61242c576040517f08c379a0000000000000000000000000000000000000000000000000000000008152600401612423906138dd565b60405180910390fd5b336007600086815260200190815260200160002060020160006101000a81548173ffffffffffffffffffffffffffffffffffffffff021916908373ffffffffffffffffffffffffffffffffffffffff1602179055503360076000868152602001908152602001600020600b0160016101000a81548173ffffffffffffffffffffffffffffffffffffffff021916908373ffffffffffffffffffffffffffffffffffffffff160217905550600460076000868152602001908152602001600020600b0160006101000a81548160ff02191690836007811115612536577f4e487b7100000000000000000000000000000000000000000000000000000000600052602160045260246000fd5b02179055506007600085815260200190815260200160002060030160009054906101000a900473ffffffffffffffffffffffffffffffffffffffff1673ffffffffffffffffffffffffffffffffffffffff166108fc60076000878152602001908152602001600020600a01549081150290604051600060405180830381858888f193505050501580156125cd573d6000803e3d6000fd5b507f92f64ca637d023f354075a4be751b169c1a8a9ccb6d33cdd0cb3520543995727846040516125fd91906139dd565b60405180910390a1600060076000838152602001908152602001600020600a015490506000813461262e9190613bf9565b90503373ffffffffffffffffffffffffffffffffffffffff166108fc829081150290604051600060405180830381858888f19350505050158015612676573d6000803e3d6000fd5b50505050505050565b612687611910565b61269057600080fd5b61269981612f74565b50565b80600160078111156126d7577f4e487b7100000000000000000000000000000000000000000000000000000000600052602160045260246000fd5b60076000838152602001908152602001600020600b0160009054906101000a900460ff166007811115612733577f4e487b7100000000000000000000000000000000000000000000000000000000600052602160045260246000fd5b14612773576040517f08c379a000000000000000000000000000000000000000000000000000000000815260040161276a9061397d565b60405180910390fd5b6007600083815260200190815260200160002060020160009054906101000a900473ffffffffffffffffffffffffffffffffffffffff168073ffffffffffffffffffffffffffffffffffffffff163373ffffffffffffffffffffffffffffffffffffffff1614612818576040517f08c379a000000000000000000000000000000000000000000000000000000000815260040161280f906138bd565b60405180910390fd5b61282133611bd0565b612860576040517f08c379a00000000000000000000000000000000000000000000000000000000081526004016128579061399d565b60405180910390fd5b600260076000858152602001908152602001600020600b0160006101000a81548160ff021916908360078111156128c0577f4e487b7100000000000000000000000000000000000000000000000000000000600052602160045260246000fd5b02179055507f9b3b66e2380b690bae22c73ef1428fb0c91e72fe14a4b6defa13035214187aff836040516128f491906139dd565b60405180910390a1505050565b806004600781111561293c577f4e487b7100000000000000000000000000000000000000000000000000000000600052602160045260246000fd5b60076000838152602001908152602001600020600b0160009054906101000a900460ff166007811115612998577f4e487b7100000000000000000000000000000000000000000000000000000000600052602160045260246000fd5b146129d8576040517f08c379a00000000000000000000000000000000000000000000000000000000081526004016129cf9061389d565b60405180910390fd5b6007600083815260200190815260200160002060020160009054906101000a900473ffffffffffffffffffffffffffffffffffffffff168073ffffffffffffffffffffffffffffffffffffffff163373ffffffffffffffffffffffffffffffffffffffff1614612a7d576040517f08c379a0000000000000000000000000000000000000000000000000000000008152600401612a74906138bd565b60405180910390fd5b612a86336118f3565b612ac5576040517f08c379a0000000000000000000000000000000000000000000000000000000008152600401612abc906138dd565b60405180910390fd5b600560076000858152602001908152602001600020600b0160006101000a81548160ff02191690836007811115612b25577f4e487b7100000000000000000000000000000000000000000000000000000000600052602160045260246000fd5b02179055507ff00b9a5725b80c54016f42114f6ed7792d22eecb116011c4afac29c57bef6c9583604051612b5991906139dd565b60405180910390a1505050565b600073ffffffffffffffffffffffffffffffffffffffff168173ffffffffffffffffffffffffffffffffffffffff161415612ba057600080fd5b612baa8282612c6c565b15612bb457600080fd5b60018260000160008373ffffffffffffffffffffffffffffffffffffffff1673ffffffffffffffffffffffffffffffffffffffff16815260200190815260200160002060006101000a81548160ff0219169083151502179055505050565b612c26816004612b6690919063ffffffff16565b8073ffffffffffffffffffffffffffffffffffffffff167f28b26e7a3d20aedbc5f8f2ebf7da671c0491723a2b78f47a097b0e46dee0714260405160405180910390a250565b60008073ffffffffffffffffffffffffffffffffffffffff168273ffffffffffffffffffffffffffffffffffffffff161415612ca757600080fd5b8260000160008373ffffffffffffffffffffffffffffffffffffffff1673ffffffffffffffffffffffffffffffffffffffff16815260200190815260200160002060009054906101000a900460ff16905092915050565b612d1281600461306b90919063ffffffff16565b8073ffffffffffffffffffffffffffffffffffffffff167fe3f5ed5f263f1f01764a96edfc7d025f511ec5f7d180e8816908b78bcf74f09860405160405180910390a250565b612d6c81600261306b90919063ffffffff16565b8073ffffffffffffffffffffffffffffffffffffffff167f126174f6cf49c81cdb4a9214c6b8f037bef55b4ec31e4fc776cea2a1c8a88d5960405160405180910390a250565b612dc6816002612b6690919063ffffffff16565b8073ffffffffffffffffffffffffffffffffffffffff167fddbf200aa634dc3fb81cfd68583dd1040d1c751d335e1d86b631bde3e977fea860405160405180910390a250565b612e20816001612b6690919063ffffffff16565b8073ffffffffffffffffffffffffffffffffffffffff167f2e0ded4123377a3c2bc9a26f1717655a129e2f20752924d42e730ec89c83dbd060405160405180910390a250565b612e7a81600161306b90919063ffffffff16565b8073ffffffffffffffffffffffffffffffffffffffff167fa5e0f060af304ab17dd418c7927e3da3ae7868189bf387aee09ab179ccc572f260405160405180910390a250565b612ed4816003612b6690919063ffffffff16565b8073ffffffffffffffffffffffffffffffffffffffff167f71ae26cad02663e3d92efd6ec56031a80d74a20c0ab4183faa8bf262261c9baa60405160405180910390a250565b612f2e81600361306b90919063ffffffff16565b8073ffffffffffffffffffffffffffffffffffffffff167fdb7176e79cffef81cb01767dd0447a0b24bb72ca9778d4b245581086b2a7e6db60405160405180910390a250565b600073ffffffffffffffffffffffffffffffffffffffff168173ffffffffffffffffffffffffffffffffffffffff161415612fae57600080fd5b8073ffffffffffffffffffffffffffffffffffffffff1660008054906101000a900473ffffffffffffffffffffffffffffffffffffffff1673ffffffffffffffffffffffffffffffffffffffff167f5c486528ec3e3f0ea91181cff8116f02bfa350e03b8b6f12e00765adbb5af85c60405160405180910390a3806000806101000a81548173ffffffffffffffffffffffffffffffffffffffff021916908373ffffffffffffffffffffffffffffffffffffffff16021790555050565b600073ffffffffffffffffffffffffffffffffffffffff168173ffffffffffffffffffffffffffffffffffffffff1614156130a557600080fd5b6130af8282612c6c565b6130b857600080fd5b60008260000160008373ffffffffffffffffffffffffffffffffffffffff1673ffffffffffffffffffffffffffffffffffffffff16815260200190815260200160002060006101000a81548160ff0219169083151502179055505050565b82805461312290613cb7565b90600052602060002090601f016020900481019282613144576000855561318b565b82601f1061315d57805160ff191683800117855561318b565b8280016001018555821561318b579182015b8281111561318a57825182559160200191906001019061316f565b5b509050613198919061319c565b5090565b5b808211156131b557600081600090555060010161319d565b5090565b60006131cc6131c784613b57565b613b26565b9050828152602081018484840111156131e457600080fd5b6131ef848285613c75565b509392505050565b60008135905061320681613d87565b92915050565b600082601f83011261321d57600080fd5b813561322d8482602086016131b9565b91505092915050565b60008135905061324581613d9e565b92915050565b60006020828403121561325d57600080fd5b600061326b848285016131f7565b91505092915050565b60006020828403121561328657600080fd5b600061329484828501613236565b91505092915050565b600080600080600080600060e0888a0312156132b857600080fd5b60006132c68a828b01613236565b97505060206132d78a828b016131f7565b965050604088013567ffffffffffffffff8111156132f457600080fd5b6133008a828b0161320c565b955050606088013567ffffffffffffffff81111561331d57600080fd5b6133298a828b0161320c565b945050608088013567ffffffffffffffff81111561334657600080fd5b6133528a828b0161320c565b93505060a088013567ffffffffffffffff81111561336f57600080fd5b61337b8a828b0161320c565b92505060c088013567ffffffffffffffff81111561339857600080fd5b6133a48a828b0161320c565b91505092959891949750929550565b600080604083850312156133c657600080fd5b60006133d485828601613236565b92505060206133e585828601613236565b9150509250929050565b6133f881613c2d565b82525050565b61340781613c3f565b82525050565b600061341882613b87565b6134228185613b92565b9350613432818560208601613c84565b61343b81613d76565b840191505092915050565b6000613453600f83613b92565b91507f4974656d206e6f74207061636b656400000000000000000000000000000000006000830152602082019050919050565b6000613493601083613b92565b91507f4974656d206e6f742073686970706564000000000000000000000000000000006000830152602082019050919050565b60006134d3601183613b92565b91507f4974656d206e6f742072656365697665640000000000000000000000000000006000830152602082019050919050565b6000613513600d83613b92565b91507f4974656d206e6f7420736f6c64000000000000000000000000000000000000006000830152602082019050919050565b6000613553601a83613b92565b91507f43616c6c657220766572696669636174696f6e206661696c65640000000000006000830152602082019050919050565b6000613593602583613b92565b91507f53656e646572206973206e6f7420616e206578697374696e672064697374726960008301527f6275746f720000000000000000000000000000000000000000000000000000006020830152604082019050919050565b60006135f9602283613b92565b91507f53656e646572206973206e6f7420616e206578697374696e672072657461696c60008301527f65720000000000000000000000000000000000000000000000000000000000006020830152604082019050919050565b600061365f602283613b92565b91507f53656e646572206973206e6f7420616e206578697374696e6720637573746f6d60008301527f65720000000000000000000000000000000000000000000000000000000000006020830152604082019050919050565b60006136c5601383613b92565b91507f496e73756666696369656e7420616d6f756e74000000000000000000000000006000830152602082019050919050565b6000613705601283613b92565b91507f4974656d206e6f742068617276657374656400000000000000000000000000006000830152602082019050919050565b6000613745601283613b92565b91507f4974656d206e6f742070726f63657373656400000000000000000000000000006000830152602082019050919050565b6000613785602083613b92565b91507f53656e646572206973206e6f7420616e206578697374696e67206661726d65726000830152602082019050919050565b60006137c5601183613b92565b91507f4974656d206e6f7420666f722073616c650000000000000000000000000000006000830152602082019050919050565b61380181613c6b565b82525050565b600060208201905061381c60008301846133ef565b92915050565b600060208201905061383760008301846133fe565b92915050565b6000602082019050818103600083015261385681613446565b9050919050565b6000602082019050818103600083015261387681613486565b9050919050565b60006020820190508181036000830152613896816134c6565b9050919050565b600060208201905081810360008301526138b681613506565b9050919050565b600060208201905081810360008301526138d681613546565b9050919050565b600060208201905081810360008301526138f681613586565b9050919050565b60006020820190508181036000830152613916816135ec565b9050919050565b6000602082019050818103600083015261393681613652565b9050919050565b60006020820190508181036000830152613956816136b8565b9050919050565b60006020820190508181036000830152613976816136f8565b9050919050565b6000602082019050818103600083015261399681613738565b9050919050565b600060208201905081810360008301526139b681613778565b9050919050565b600060208201905081810360008301526139d6816137b8565b9050919050565b60006020820190506139f260008301846137f8565b92915050565b600061010082019050613a0e600083018b6137f8565b613a1b602083018a6137f8565b613a2860408301896133ef565b613a3560608301886133ef565b8181036080830152613a47818761340d565b905081810360a0830152613a5b818661340d565b905081810360c0830152613a6f818561340d565b905081810360e0830152613a83818461340d565b90509998505050505050505050565b600061012082019050613aa8600083018c6137f8565b613ab5602083018b6137f8565b613ac2604083018a6137f8565b8181036060830152613ad4818961340d565b9050613ae360808301886137f8565b613af060a08301876137f8565b613afd60c08301866133ef565b613b0a60e08301856133ef565b613b186101008301846133ef565b9a9950505050505050505050565b6000604051905081810181811067ffffffffffffffff82111715613b4d57613b4c613d47565b5b8060405250919050565b600067ffffffffffffffff821115613b7257613b71613d47565b5b601f19601f8301169050602081019050919050565b600081519050919050565b600082825260208201905092915050565b6000613bae82613c6b565b9150613bb983613c6b565b9250827fffffffffffffffffffffffffffffffffffffffffffffffffffffffffffffffff03821115613bee57613bed613ce9565b5b828201905092915050565b6000613c0482613c6b565b9150613c0f83613c6b565b925082821015613c2257613c21613ce9565b5b828203905092915050565b6000613c3882613c4b565b9050919050565b60008115159050919050565b600073ffffffffffffffffffffffffffffffffffffffff82169050919050565b6000819050919050565b82818337600083830152505050565b60005b83811015613ca2578082015181840152602081019050613c87565b83811115613cb1576000848401525b50505050565b60006002820490506001821680613ccf57607f821691505b60208210811415613ce357613ce2613d18565b5b50919050565b7f4e487b7100000000000000000000000000000000000000000000000000000000600052601160045260246000fd5b7f4e487b7100000000000000000000000000000000000000000000000000000000600052602260045260246000fd5b7f4e487b7100000000000000000000000000000000000000000000000000000000600052604160045260246000fd5b6000601f19601f8301169050919050565b613d9081613c2d565b8114613d9b57600080fd5b50565b613da781613c6b565b8114613db257600080fd5b5056fea2646970667358221220bf87da502b455c58f986e2b97243602e7ddc84ca780ef7a4ec467b7e0b060f3964736f6c63430008000033",
  "immutableReferences": {},
  "source": "// SPDX-License-Identifier: MIT\npragma solidity >=0.5.0 <=0.9.0;\n\n\nimport \"../coffeecore/Ownable.sol\";\nimport \"../coffeeaccesscontrol/FarmerRole.sol\";\nimport \"../coffeeaccesscontrol/DistributorRole.sol\";\nimport \"../coffeeaccesscontrol/RetailerRole.sol\";\nimport \"../coffeeaccesscontrol/ConsumerRole.sol\";\n\n// Define a contract 'Supplychain'\ncontract SupplyChain is\n\tOwnable,\n\tFarmerRole,\n\tDistributorRole,\n\tRetailerRole,\n\tConsumerRole\n{\n\n  // Define 'owner'\n  /*\n  address owner;\n  */\n  // Define a variable called 'upc' for Universal Product Code (UPC)\n  uint  upc;\n\n  // Define a variable called 'sku' for Stock Keeping Unit (SKU)\n  uint  sku;\n\n  // Define a public mapping 'items' that maps the UPC to an Item.\n  mapping (uint => Item) items;\n\n  // Define a public mapping 'itemsHistory' that maps the UPC to an array of TxHash, \n  // that track its journey through the supply chain -- to be sent from DApp.\n  mapping (uint => string[]) itemsHistory;\n  \n  // Define enum 'State' with the following values:\n  enum State \n  { \n    Harvested,  // 0\n    Processed,  // 1\n    Packed,     // 2\n    ForSale,    // 3\n    Sold,       // 4\n    Shipped,    // 5\n    Received,   // 6\n    Purchased   // 7\n    }\n\n  State constant defaultState = State.Harvested;\n\n  // Define a struct 'Item' with the following fields:\n  struct Item {\n    uint    sku;  // Stock Keeping Unit (SKU)\n    uint    upc; // Universal Product Code (UPC), generated by the Farmer, goes on the package, can be verified by the Consumer\n    address ownerID;  // Metamask-Ethereum address of the current owner as the product moves through 8 stages\n    address originFarmerID; // Metamask-Ethereum address of the Farmer\n    string  originFarmName; // Farmer Name\n    string  originFarmInformation;  // Farmer Information\n    string  originFarmLatitude; // Farm Latitude\n    string  originFarmLongitude;  // Farm Longitude\n    uint    productID;  // Product ID potentially a combination of upc + sku\n    string  productNotes; // Product Notes\n    uint    productPrice; // Product Price\n    State   itemState;  // Product State as represented in the enum above\n    address distributorID;  // Metamask-Ethereum address of the Distributor\n    address retailerID; // Metamask-Ethereum address of the Retailer\n    address consumerID; // Metamask-Ethereum address of the Consumer\n  }\n\n  // Define 8 events with the same 8 state values and accept 'upc' as input argument\n  event Harvested(uint upc);\n  event Processed(uint upc);\n  event Packed(uint upc);\n  event ForSale(uint upc);\n  event Sold(uint upc);\n  event Shipped(uint upc);\n  event Received(uint upc);\n  event Purchased(uint upc);\n\n\t/*\n  // Define a modifer that checks to see if msg.sender == owner of the contract\n  modifier onlyOwner() {\n    require(msg.sender == owner);\n    _;\n  }\n\t*/\n  \n  // Define a modifer that verifies the Caller\n  modifier verifyCaller (address _address) {\n    require(msg.sender == _address, \"Caller verification failed\"); \n    _;\n  }\n\n  // Define a modifier that checks if the paid amount is sufficient to cover the price\n  modifier paidEnough(uint _price) { \n    require(msg.value >= _price, \"Insufficient amount\"); \n    _;\n  }\n  \n  // Define a modifier that checks the price and refunds the remaining balance\n  modifier checkValue(uint _upc) {    \n    _;\n    uint _price = items[_upc].productPrice;\n    uint amountToReturn = msg.value - _price;\n    payable(msg.sender).transfer(amountToReturn);\n  }\n\n  // Define a modifier that checks if an item.state of a upc is Harvested\n  modifier harvested(uint _upc) {\n    require(items[_upc].itemState == State.Harvested, \"Item not harvested\");\n    _;\n  }\n\n  // Define a modifier that checks if an item.state of a upc is Processed\n  modifier processed(uint _upc) {\n\trequire(items[_upc].itemState == State.Processed, \"Item not processed\");\n    _;\n  }\n  \n  // Define a modifier that checks if an item.state of a upc is Packed\n  modifier packed(uint _upc) {\n\trequire(items[_upc].itemState == State.Packed, \"Item not packed\");\n    _;\n  }\n\n  // Define a modifier that checks if an item.state of a upc is ForSale\n  modifier forSale(uint _upc) {\n\trequire(items[_upc].itemState == State.ForSale, \"Item not for sale\");\n    _;\n  }\n\n  // Define a modifier that checks if an item.state of a upc is Sold\n  modifier sold(uint _upc) {\n\trequire(items[_upc].itemState == State.Sold, \"Item not sold\");\n    _;\n  }\n  \n  // Define a modifier that checks if an item.state of a upc is Shipped\n  modifier shipped(uint _upc) {\n\trequire(items[_upc].itemState == State.Shipped, \"Item not shipped\");\n    _;\n  }\n\n  // Define a modifier that checks if an item.state of a upc is Received\n  modifier received(uint _upc) {\n  require(items[_upc].itemState == State.Received, \"Item not received\");\n    _;\n  }\n\n  // Define a modifier that checks if an item.state of a upc is Purchased\n  modifier purchased(uint _upc) {\n    require(items[_upc].itemState == State.Purchased, \"Item not purchased\");\n    _;\n  }\n\n  // In the constructor set 'owner' to the address that instantiated the contract\n  // and set 'sku' to 1\n  // and set 'upc' to 1\n  constructor() public {\n  /* owner = msg.sender;\n\t*/\n    sku = 1;\n    upc = 1;\n  }\n\n  // Define a function 'kill' if required\n\t/*  \n\tfunction kill() public {\n    if (msg.sender == owner) {\n      selfdestruct(owner);\n    }\n  }\n\t*/\n\t\n  // Define a function 'harvestItem' that allows a farmer to mark an item 'Harvested'\n  function harvestItem(\n\tuint _upc, \n\taddress _originFarmerID, \n\tstring memory _originFarmName, \n\tstring memory _originFarmInformation, \n\tstring memory _originFarmLatitude, \n\tstring memory _originFarmLongitude, \n\tstring memory _productNotes\n  ) public \n\tonlyFarmer()\n  {\n    // Add the new item as part of Harvest\n\t  Item memory newItem = Item(\n      sku\n      , _upc\n      //, address(0x0)\n      , msg.sender\n      , _originFarmerID\n      , _originFarmName\n      , _originFarmInformation\n      , _originFarmLatitude\n      , _originFarmLongitude\n      , (_upc + sku)\n      , _productNotes\n      , 0\n      , State.Harvested\n      , address(0x0)\n      , address(0x0)\n      , address(0x0)\n    );\n    \n    \n\n    items[_upc] = newItem;\n\t\t    \n    // Increment sku\n    sku = sku + 1;\n\t\n    // Emit the appropriate event    \n\temit Harvested(upc);\n  }\n\n  // Define a function 'processtItem' that allows a farmer to mark an item 'Processed' \n  // Call modifier to check if upc has passed previous supply chain stage  \n  // Call modifier to verify caller of this function\n  \n  function processItem(uint _upc) public \n  harvested(_upc)\n  verifyCaller(items[_upc].ownerID)\n  onlyFarmer()\n  {\n    // Update the appropriate fields\n    items[_upc].itemState = State.Processed;\n    // Emit the appropriate event\n    emit Processed(_upc);\n  }\n\n  // Define a function 'packItem' that allows a farmer to mark an item 'Packed'\n   \n  // Call modifier to check if upc has passed previous supply chain stage\n  // Call modifier to verify caller of this function\n  \n  function packItem(uint _upc) public\n  processed(_upc)\n  verifyCaller(items[_upc].ownerID)\n  onlyFarmer()\n  {\n    // Update the appropriate fields\n    items[_upc].itemState = State.Packed;\n    // Emit the appropriate event\n    emit Packed(_upc);\n  }\n\n  // Define a function 'sellItem' that allows a farmer to mark an item 'ForSale'\n  \n\t// Call modifier to check if upc has passed previous supply chain stage\n\t// Call modifier to verify caller of this function\n  function sellItem(uint _upc, uint _price) public \n  packed(_upc)\n  verifyCaller(items[_upc].ownerID)\n  onlyFarmer()\n  {\n    // Update the appropriate fields\n    items[_upc].productPrice = _price;\n\titems[_upc].itemState = State.ForSale;\n    // Emit the appropriate event\n    emit ForSale(_upc);\n  }\n\n  // Define a function 'buyItem' that allows the disributor to mark an item 'Sold'\n  // Use the above defined modifiers to check if the item is available for sale, if the buyer has paid enough, \n  // and any excess ether sent is refunded back to the buyer\n   \n    // Call modifier to check if upc has passed previous supply chain stage    \n    // Call modifer to check if buyer has paid enough    \n    // Call modifer to send any excess ether back to buyer\n\tfunction buyItem(uint _upc) public payable  \n\tforSale(_upc)\n\tpaidEnough(items[_upc].productPrice)\n\tcheckValue(_upc)\n\tonlyDistributor()\n    {\n    \n    // Update the appropriate fields - ownerID, distributorID, itemState\n    items[_upc].ownerID = msg.sender;\n\titems[_upc].distributorID = msg.sender;\n\titems[_upc].itemState = State.Sold;\n    \n\t// Transfer money to farmer\n    //address farmerAddress = address(uint160(items[_upc].originFarmerID));\n    //farmerAddress.transfer(items[_upc].productPrice);\n    payable(items[_upc].originFarmerID).transfer(items[_upc].productPrice);\n\t\n\t// emit the appropriate event\n    emit Sold(_upc);\n  }\n\n  // Define a function 'shipItem' that allows the distributor to mark an item 'Shipped'\n  // Use the above modifers to check if the item is sold\n  \n    // Call modifier to check if upc has passed previous supply chain stage\n    // Call modifier to verify caller of this function\n\tfunction shipItem(uint _upc) public   \n\tsold(_upc)\n\tverifyCaller(items[_upc].ownerID)\n\tonlyDistributor()\n    {\n    // Update the appropriate fields\n    items[_upc].itemState = State.Shipped;\n    // Emit the appropriate event\n\temit Shipped(_upc);    \n  }\n\n  // Define a function 'receiveItem' that allows the retailer to mark an item 'Received'\n  // Use the above modifiers to check if the item is shipped\n   \n    // Call modifier to check if upc has passed previous supply chain stage\n    // Access Control List enforced by calling Smart Contract / DApp\n\tfunction receiveItem(uint _upc) public\n\tshipped(_upc)\n\tonlyRetailer()\n    {\n    // Update the appropriate fields - ownerID, retailerID, itemState\n\titems[_upc].ownerID = msg.sender;\n\titems[_upc].retailerID = msg.sender;\n\titems[_upc].itemState = State.Received;\n    \n    // Emit the appropriate event\n    emit Received(_upc);\n  }\n\n  // Define a function 'purchaseItem' that allows the consumer to mark an item 'Purchased'\n  // Use the above modifiers to check if the item is received\n  \n    // Call modifier to check if upc has passed previous supply chain stage\n    // Access Control List enforced by calling Smart Contract / DApp\n    function purchaseItem(uint _upc) public \n\treceived(_upc)\n\tonlyConsumer()\n\t{\n    // Update the appropriate fields - ownerID, consumerID, itemState\n    items[_upc].ownerID = msg.sender;\n\t  items[_upc].consumerID = msg.sender;\n\t  items[_upc].itemState = State.Purchased;\n\t\t\n    // Emit the appropriate event\n    emit Purchased(_upc);\n  }\n\n  // Define a function 'fetchItemBufferOne' that fetches the data\n  function fetchItemBufferOne(uint _upc) public view returns \n  (\n  uint    itemSKU,\n  uint    itemUPC,\n  address ownerID,\n  address originFarmerID,\n  string memory originFarmName,\n  string memory originFarmInformation,\n  string memory originFarmLatitude,\n  string memory originFarmLongitude\n  ) \n  {\n  // Assign values to the 8 parameters\n  Item memory fetchedItem = items[_upc];\n  \n  itemSKU = fetchedItem.sku;\n  itemUPC = _upc;\n  ownerID = fetchedItem.ownerID;\n  originFarmerID = fetchedItem.originFarmerID;\n  originFarmName = fetchedItem.originFarmName;\n  originFarmInformation = fetchedItem.originFarmInformation;\n  originFarmLatitude = fetchedItem.originFarmLatitude;\n  originFarmLongitude = fetchedItem.originFarmLongitude;\n\t\n  return \n  (\n  itemSKU,\n  itemUPC,\n  ownerID,\n  originFarmerID,\n  originFarmName,\n  originFarmInformation,\n  originFarmLatitude,\n  originFarmLongitude\n  );\n  }\n\n  // Define a function 'fetchItemBufferTwo' that fetches the data\n  function fetchItemBufferTwo(uint _upc) public view returns \n  (\n  uint    itemSKU,\n  uint    itemUPC,\n  uint    productID,\n  string  memory productNotes,\n  uint    productPrice,\n  uint    itemState,\n  address distributorID,\n  address retailerID,\n  address consumerID\n  ) \n  {\n    // Assign values to the 9 parameters\n\tItem memory fetchedItem = items[_upc];\n    \n\titemSKU = fetchedItem.sku;\n\titemUPC = _upc;\n\tproductID = fetchedItem.productID;\n\tproductNotes = fetchedItem.productNotes;\n\tproductPrice = fetchedItem.productPrice;\n\titemState = uint(fetchedItem.itemState);\n\tdistributorID = fetchedItem.distributorID;\n\tretailerID = fetchedItem.retailerID;\n\tconsumerID = fetchedItem.consumerID;\n\t\n  return \n  (\n  itemSKU,\n  itemUPC,\n  productID,\n  productNotes,\n  productPrice,\n  itemState,\n  distributorID,\n  retailerID,\n  consumerID\n  );\n  }\n}\n",
  "sourcePath": "C:\\Users\\User\\blockchain\\EthereumDappSupplyChain\\contracts\\coffeebase\\SupplyChain.sol",
  "compiler": {
    "name": "solc",
    "version": "0.8.0+commit.c7dfd78e.Emscripten.clang"
  },
  "schemaVersion": "3.4.3",
  "updatedAt": "2021-10-20T06:26:37.336Z",
  "networkType": "ethereum",
  "devdoc": {
    "kind": "dev",
    "methods": {},
    "version": 1
  },
  "userdoc": {
    "kind": "user",
    "methods": {
      "isOwner()": {
        "notice": "Check if the calling address is the owner of the contract"
      },
      "owner()": {
        "notice": "Look up the address of the owner"
      },
      "renounceOwnership()": {
        "notice": "Define a function to renounce ownerhip"
      },
      "transferOwnership(address)": {
        "notice": "Define a public function to transfer ownership"
      }
    },
    "version": 1
  }
}